{
  "_format": "hh-sol-artifact-1",
  "contractName": "BundyAssessment",
  "sourceName": "contracts/BundyAssessment.sol",
  "abi": [
    {
      "inputs": [
        {
          "internalType": "string",
          "name": "_name",
          "type": "string"
        },
        {
          "internalType": "string",
          "name": "_symbol",
          "type": "string"
        },
        {
          "internalType": "string",
          "name": "_initBaseURI",
          "type": "string"
        },
        {
          "internalType": "string",
          "name": "_initNotRevealedUri",
          "type": "string"
        }
      ],
      "stateMutability": "nonpayable",
      "type": "constructor"
    },
    {
      "anonymous": false,
      "inputs": [
        {
          "indexed": true,
          "internalType": "address",
          "name": "owner",
          "type": "address"
        },
        {
          "indexed": true,
          "internalType": "address",
          "name": "approved",
          "type": "address"
        },
        {
          "indexed": true,
          "internalType": "uint256",
          "name": "tokenId",
          "type": "uint256"
        }
      ],
      "name": "Approval",
      "type": "event"
    },
    {
      "anonymous": false,
      "inputs": [
        {
          "indexed": true,
          "internalType": "address",
          "name": "owner",
          "type": "address"
        },
        {
          "indexed": true,
          "internalType": "address",
          "name": "operator",
          "type": "address"
        },
        {
          "indexed": false,
          "internalType": "bool",
          "name": "approved",
          "type": "bool"
        }
      ],
      "name": "ApprovalForAll",
      "type": "event"
    },
    {
      "anonymous": false,
      "inputs": [
        {
          "indexed": true,
          "internalType": "address",
          "name": "previousOwner",
          "type": "address"
        },
        {
          "indexed": true,
          "internalType": "address",
          "name": "newOwner",
          "type": "address"
        }
      ],
      "name": "OwnershipTransferred",
      "type": "event"
    },
    {
      "anonymous": false,
      "inputs": [
        {
          "indexed": true,
          "internalType": "address",
          "name": "from",
          "type": "address"
        },
        {
          "indexed": true,
          "internalType": "address",
          "name": "to",
          "type": "address"
        },
        {
          "indexed": true,
          "internalType": "uint256",
          "name": "tokenId",
          "type": "uint256"
        }
      ],
      "name": "Transfer",
      "type": "event"
    },
    {
      "inputs": [
        {
          "internalType": "address",
          "name": "",
          "type": "address"
        }
      ],
      "name": "addressMintedBalance",
      "outputs": [
        {
          "internalType": "uint256",
          "name": "",
          "type": "uint256"
        }
      ],
      "stateMutability": "view",
      "type": "function"
    },
    {
      "inputs": [
        {
          "internalType": "address",
          "name": "to",
          "type": "address"
        },
        {
          "internalType": "uint256",
          "name": "tokenId",
          "type": "uint256"
        }
      ],
      "name": "approve",
      "outputs": [],
      "stateMutability": "nonpayable",
      "type": "function"
    },
    {
      "inputs": [
        {
          "internalType": "address",
          "name": "owner",
          "type": "address"
        }
      ],
      "name": "balanceOf",
      "outputs": [
        {
          "internalType": "uint256",
          "name": "",
          "type": "uint256"
        }
      ],
      "stateMutability": "view",
      "type": "function"
    },
    {
      "inputs": [],
      "name": "baseExtension",
      "outputs": [
        {
          "internalType": "string",
          "name": "",
          "type": "string"
        }
      ],
      "stateMutability": "view",
      "type": "function"
    },
    {
      "inputs": [],
      "name": "cost",
      "outputs": [
        {
          "internalType": "uint256",
          "name": "",
          "type": "uint256"
        }
      ],
      "stateMutability": "view",
      "type": "function"
    },
    {
      "inputs": [
        {
          "internalType": "uint256",
          "name": "tokenId",
          "type": "uint256"
        }
      ],
      "name": "getApproved",
      "outputs": [
        {
          "internalType": "address",
          "name": "",
          "type": "address"
        }
      ],
      "stateMutability": "view",
      "type": "function"
    },
    {
      "inputs": [
        {
          "internalType": "address",
          "name": "owner",
          "type": "address"
        },
        {
          "internalType": "address",
          "name": "operator",
          "type": "address"
        }
      ],
      "name": "isApprovedForAll",
      "outputs": [
        {
          "internalType": "bool",
          "name": "",
          "type": "bool"
        }
      ],
      "stateMutability": "view",
      "type": "function"
    },
    {
      "inputs": [
        {
          "internalType": "address",
          "name": "_user",
          "type": "address"
        }
      ],
      "name": "isWhitelisted",
      "outputs": [
        {
          "internalType": "bool",
          "name": "",
          "type": "bool"
        }
      ],
      "stateMutability": "view",
      "type": "function"
    },
    {
      "inputs": [],
      "name": "maxMintAmount",
      "outputs": [
        {
          "internalType": "uint256",
          "name": "",
          "type": "uint256"
        }
      ],
      "stateMutability": "view",
      "type": "function"
    },
    {
      "inputs": [],
      "name": "maxSupply",
      "outputs": [
        {
          "internalType": "uint256",
          "name": "",
          "type": "uint256"
        }
      ],
      "stateMutability": "view",
      "type": "function"
    },
    {
      "inputs": [
        {
          "internalType": "uint256",
          "name": "_mintAmount",
          "type": "uint256"
        }
      ],
      "name": "mint",
      "outputs": [],
      "stateMutability": "payable",
      "type": "function"
    },
    {
      "inputs": [
        {
          "internalType": "uint256",
          "name": "ID",
          "type": "uint256"
        }
      ],
      "name": "mintSpecificID",
      "outputs": [],
      "stateMutability": "payable",
      "type": "function"
    },
    {
      "inputs": [],
      "name": "name",
      "outputs": [
        {
          "internalType": "string",
          "name": "",
          "type": "string"
        }
      ],
      "stateMutability": "view",
      "type": "function"
    },
    {
      "inputs": [],
      "name": "nftPerAddressLimit",
      "outputs": [
        {
          "internalType": "uint256",
          "name": "",
          "type": "uint256"
        }
      ],
      "stateMutability": "view",
      "type": "function"
    },
    {
      "inputs": [],
      "name": "notRevealedUri",
      "outputs": [
        {
          "internalType": "string",
          "name": "",
          "type": "string"
        }
      ],
      "stateMutability": "view",
      "type": "function"
    },
    {
      "inputs": [],
      "name": "onlyWhitelisted",
      "outputs": [
        {
          "internalType": "bool",
          "name": "",
          "type": "bool"
        }
      ],
      "stateMutability": "view",
      "type": "function"
    },
    {
      "inputs": [],
      "name": "owner",
      "outputs": [
        {
          "internalType": "address",
          "name": "",
          "type": "address"
        }
      ],
      "stateMutability": "view",
      "type": "function"
    },
    {
      "inputs": [
        {
          "internalType": "uint256",
          "name": "tokenId",
          "type": "uint256"
        }
      ],
      "name": "ownerOf",
      "outputs": [
        {
          "internalType": "address",
          "name": "",
          "type": "address"
        }
      ],
      "stateMutability": "view",
      "type": "function"
    },
    {
      "inputs": [
        {
          "internalType": "bool",
          "name": "_state",
          "type": "bool"
        }
      ],
      "name": "pause",
      "outputs": [],
      "stateMutability": "nonpayable",
      "type": "function"
    },
    {
      "inputs": [],
      "name": "paused",
      "outputs": [
        {
          "internalType": "bool",
          "name": "",
          "type": "bool"
        }
      ],
      "stateMutability": "view",
      "type": "function"
    },
    {
      "inputs": [],
      "name": "renounceOwnership",
      "outputs": [],
      "stateMutability": "nonpayable",
      "type": "function"
    },
    {
      "inputs": [],
      "name": "reveal",
      "outputs": [],
      "stateMutability": "nonpayable",
      "type": "function"
    },
    {
      "inputs": [],
      "name": "revealed",
      "outputs": [
        {
          "internalType": "bool",
          "name": "",
          "type": "bool"
        }
      ],
      "stateMutability": "view",
      "type": "function"
    },
    {
      "inputs": [
        {
          "internalType": "address",
          "name": "from",
          "type": "address"
        },
        {
          "internalType": "address",
          "name": "to",
          "type": "address"
        },
        {
          "internalType": "uint256",
          "name": "tokenId",
          "type": "uint256"
        }
      ],
      "name": "safeTransferFrom",
      "outputs": [],
      "stateMutability": "nonpayable",
      "type": "function"
    },
    {
      "inputs": [
        {
          "internalType": "address",
          "name": "from",
          "type": "address"
        },
        {
          "internalType": "address",
          "name": "to",
          "type": "address"
        },
        {
          "internalType": "uint256",
          "name": "tokenId",
          "type": "uint256"
        },
        {
          "internalType": "bytes",
          "name": "_data",
          "type": "bytes"
        }
      ],
      "name": "safeTransferFrom",
      "outputs": [],
      "stateMutability": "nonpayable",
      "type": "function"
    },
    {
      "inputs": [
        {
          "internalType": "address",
          "name": "operator",
          "type": "address"
        },
        {
          "internalType": "bool",
          "name": "approved",
          "type": "bool"
        }
      ],
      "name": "setApprovalForAll",
      "outputs": [],
      "stateMutability": "nonpayable",
      "type": "function"
    },
    {
      "inputs": [
        {
          "internalType": "string",
          "name": "_newBaseExtension",
          "type": "string"
        }
      ],
      "name": "setBaseExtension",
      "outputs": [],
      "stateMutability": "nonpayable",
      "type": "function"
    },
    {
      "inputs": [
        {
          "internalType": "string",
          "name": "_newBaseURI",
          "type": "string"
        }
      ],
      "name": "setBaseURI",
      "outputs": [],
      "stateMutability": "nonpayable",
      "type": "function"
    },
    {
      "inputs": [
        {
          "internalType": "uint256",
          "name": "_newCost",
          "type": "uint256"
        }
      ],
      "name": "setCost",
      "outputs": [],
      "stateMutability": "nonpayable",
      "type": "function"
    },
    {
      "inputs": [
        {
          "internalType": "uint256",
          "name": "_limit",
          "type": "uint256"
        }
      ],
      "name": "setNftPerAddressLimit",
      "outputs": [],
      "stateMutability": "nonpayable",
      "type": "function"
    },
    {
      "inputs": [
        {
          "internalType": "string",
          "name": "_notRevealedURI",
          "type": "string"
        }
      ],
      "name": "setNotRevealedURI",
      "outputs": [],
      "stateMutability": "nonpayable",
      "type": "function"
    },
    {
      "inputs": [
        {
          "internalType": "bool",
          "name": "_state",
          "type": "bool"
        }
      ],
      "name": "setOnlyWhitelisted",
      "outputs": [],
      "stateMutability": "nonpayable",
      "type": "function"
    },
    {
      "inputs": [
        {
          "internalType": "uint256",
          "name": "_newmaxMintAmount",
          "type": "uint256"
        }
      ],
      "name": "setmaxMintAmount",
      "outputs": [],
      "stateMutability": "nonpayable",
      "type": "function"
    },
    {
      "inputs": [
        {
          "internalType": "bytes4",
          "name": "interfaceId",
          "type": "bytes4"
        }
      ],
      "name": "supportsInterface",
      "outputs": [
        {
          "internalType": "bool",
          "name": "",
          "type": "bool"
        }
      ],
      "stateMutability": "view",
      "type": "function"
    },
    {
      "inputs": [],
      "name": "symbol",
      "outputs": [
        {
          "internalType": "string",
          "name": "",
          "type": "string"
        }
      ],
      "stateMutability": "view",
      "type": "function"
    },
    {
      "inputs": [
        {
          "internalType": "uint256",
          "name": "index",
          "type": "uint256"
        }
      ],
      "name": "tokenByIndex",
      "outputs": [
        {
          "internalType": "uint256",
          "name": "",
          "type": "uint256"
        }
      ],
      "stateMutability": "view",
      "type": "function"
    },
    {
      "inputs": [
        {
          "internalType": "address",
          "name": "owner",
          "type": "address"
        },
        {
          "internalType": "uint256",
          "name": "index",
          "type": "uint256"
        }
      ],
      "name": "tokenOfOwnerByIndex",
      "outputs": [
        {
          "internalType": "uint256",
          "name": "",
          "type": "uint256"
        }
      ],
      "stateMutability": "view",
      "type": "function"
    },
    {
      "inputs": [
        {
          "internalType": "uint256",
          "name": "tokenId",
          "type": "uint256"
        }
      ],
      "name": "tokenURI",
      "outputs": [
        {
          "internalType": "string",
          "name": "",
          "type": "string"
        }
      ],
      "stateMutability": "view",
      "type": "function"
    },
    {
      "inputs": [],
      "name": "totalSupply",
      "outputs": [
        {
          "internalType": "uint256",
          "name": "",
          "type": "uint256"
        }
      ],
      "stateMutability": "view",
      "type": "function"
    },
    {
      "inputs": [
        {
          "internalType": "address",
          "name": "from",
          "type": "address"
        },
        {
          "internalType": "address",
          "name": "to",
          "type": "address"
        },
        {
          "internalType": "uint256",
          "name": "tokenId",
          "type": "uint256"
        }
      ],
      "name": "transferFrom",
      "outputs": [],
      "stateMutability": "nonpayable",
      "type": "function"
    },
    {
      "inputs": [
        {
          "internalType": "address",
          "name": "newOwner",
          "type": "address"
        }
      ],
      "name": "transferOwnership",
      "outputs": [],
      "stateMutability": "nonpayable",
      "type": "function"
    },
    {
      "inputs": [
        {
          "internalType": "address",
          "name": "_owner",
          "type": "address"
        }
      ],
      "name": "walletOfOwner",
      "outputs": [
        {
          "internalType": "uint256[]",
          "name": "",
          "type": "uint256[]"
        }
      ],
      "stateMutability": "view",
      "type": "function"
    },
    {
      "inputs": [
        {
          "internalType": "address[]",
          "name": "_users",
          "type": "address[]"
        }
      ],
      "name": "whitelistUsers",
      "outputs": [],
      "stateMutability": "nonpayable",
      "type": "function"
    },
    {
      "inputs": [
        {
          "internalType": "uint256",
          "name": "",
          "type": "uint256"
        }
      ],
      "name": "whitelistedAddresses",
      "outputs": [
        {
          "internalType": "address",
          "name": "",
          "type": "address"
        }
      ],
      "stateMutability": "view",
      "type": "function"
    },
    {
      "inputs": [],
      "name": "withdraw",
      "outputs": [],
      "stateMutability": "payable",
      "type": "function"
    }
  ],
  "bytecode": "60c06040526005608081905264173539b7b760d91b60a09081526200002891600c919062000209565b5066b1a2bc2ec50000600e55601f600f55600260108190556011556012805462ffffff1916620100011790553480156200006157600080fd5b5060405162002ebd38038062002ebd833981016040819052620000849162000366565b8351849084906200009d90600090602085019062000209565b508051620000b390600190602084019062000209565b505050620000d0620000ca620000f060201b60201c565b620000f4565b620000db8262000146565b620000e681620001ae565b5050505062000472565b3390565b600a80546001600160a01b038381166001600160a01b0319831681179093556040519116919082907f8be0079c531659141344cd1fd0a4f28419497f9722a3daafe3b4186f6b6457e090600090a35050565b600a546001600160a01b03163314620001955760405162461bcd60e51b8152602060048201819052602482015260008051602062002e9d83398151915260448201526064015b60405180910390fd5b8051620001aa90600b90602084019062000209565b5050565b600a546001600160a01b03163314620001f95760405162461bcd60e51b8152602060048201819052602482015260008051602062002e9d83398151915260448201526064016200018c565b8051620001aa90600d9060208401905b82805462000217906200041f565b90600052602060002090601f0160209004810192826200023b576000855562000286565b82601f106200025657805160ff191683800117855562000286565b8280016001018555821562000286579182015b828111156200028657825182559160200191906001019062000269565b506200029492915062000298565b5090565b5b8082111562000294576000815560010162000299565b600082601f830112620002c157600080fd5b81516001600160401b0380821115620002de57620002de6200045c565b604051601f8301601f19908116603f011681019082821181831017156200030957620003096200045c565b816040528381526020925086838588010111156200032657600080fd5b600091505b838210156200034a57858201830151818301840152908201906200032b565b838211156200035c5760008385830101525b9695505050505050565b600080600080608085870312156200037d57600080fd5b84516001600160401b03808211156200039557600080fd5b620003a388838901620002af565b95506020870151915080821115620003ba57600080fd5b620003c888838901620002af565b94506040870151915080821115620003df57600080fd5b620003ed88838901620002af565b935060608701519150808211156200040457600080fd5b506200041387828801620002af565b91505092959194509250565b600181811c908216806200043457607f821691505b602082108114156200045657634e487b7160e01b600052602260045260246000fd5b50919050565b634e487b7160e01b600052604160045260246000fd5b612a1b80620004826000396000f3fe6080604052600436106102725760003560e01c80636352211e1161014f578063b88d4fde116100c1578063d5abeb011161007a578063d5abeb0114610715578063da3ef23f1461072b578063e985e9c51461074b578063edec5f2714610794578063f2c4ce1e146107b4578063f2fde38b146107d457600080fd5b8063b88d4fde1461066a578063ba4e5c491461068a578063ba7d2c76146106aa578063c6682862146106c0578063c87b56dd146106d5578063d0eb26b0146106f557600080fd5b806395d89b411161011357806395d89b41146105da5780639c70b512146105ef578063a0712d681461060f578063a22cb46514610622578063a475b5dd14610642578063b77945bc1461065757600080fd5b80636352211e1461054757806370a0823114610567578063715018a6146105875780637f00c7a61461059c5780638da5cb5b146105bc57600080fd5b80632f745c59116101e8578063438b6300116101ac578063438b63001461048157806344a0d68a146104ae5780634f6ccce7146104ce57806351830227146104ee57806355f804b31461050d5780635c975abb1461052d57600080fd5b80632f745c59146103f95780633af32abf146104195780633c952764146104395780633ccfd60b1461045957806342842e0e1461046157600080fd5b8063095ea7b31161023a578063095ea7b31461033d57806313faede61461035d57806318160ddd1461038157806318cae26914610396578063239c70ae146103c357806323b872dd146103d957600080fd5b806301ffc9a71461027757806302329a29146102ac57806306fdde03146102ce578063081812fc146102f0578063081c8c4414610328575b600080fd5b34801561028357600080fd5b50610297610292366004612571565b6107f4565b60405190151581526020015b60405180910390f35b3480156102b857600080fd5b506102cc6102c7366004612556565b61081f565b005b3480156102da57600080fd5b506102e3610865565b6040516102a3919061277e565b3480156102fc57600080fd5b5061031061030b3660046125f4565b6108f7565b6040516001600160a01b0390911681526020016102a3565b34801561033457600080fd5b506102e361098c565b34801561034957600080fd5b506102cc6103583660046124b7565b610a1a565b34801561036957600080fd5b50610373600e5481565b6040519081526020016102a3565b34801561038d57600080fd5b50600854610373565b3480156103a257600080fd5b506103736103b1366004612387565b60146020526000908152604090205481565b3480156103cf57600080fd5b5061037360105481565b3480156103e557600080fd5b506102cc6103f43660046123d5565b610b30565b34801561040557600080fd5b506103736104143660046124b7565b610b61565b34801561042557600080fd5b50610297610434366004612387565b610bf7565b34801561044557600080fd5b506102cc610454366004612556565b610c61565b6102cc610ca7565b34801561046d57600080fd5b506102cc61047c3660046123d5565b610d29565b34801561048d57600080fd5b506104a161049c366004612387565b610d44565b6040516102a3919061273a565b3480156104ba57600080fd5b506102cc6104c93660046125f4565b610de6565b3480156104da57600080fd5b506103736104e93660046125f4565b610e15565b3480156104fa57600080fd5b5060125461029790610100900460ff1681565b34801561051957600080fd5b506102cc6105283660046125ab565b610ea8565b34801561053957600080fd5b506012546102979060ff1681565b34801561055357600080fd5b506103106105623660046125f4565b610ee9565b34801561057357600080fd5b50610373610582366004612387565b610f60565b34801561059357600080fd5b506102cc610fe7565b3480156105a857600080fd5b506102cc6105b73660046125f4565b61101d565b3480156105c857600080fd5b50600a546001600160a01b0316610310565b3480156105e657600080fd5b506102e361104c565b3480156105fb57600080fd5b506012546102979062010000900460ff1681565b6102cc61061d3660046125f4565b61105b565b34801561062e57600080fd5b506102cc61063d36600461248d565b6112d1565b34801561064e57600080fd5b506102cc6112dc565b6102cc6106653660046125f4565b611317565b34801561067657600080fd5b506102cc610685366004612411565b611382565b34801561069657600080fd5b506103106106a53660046125f4565b6113ba565b3480156106b657600080fd5b5061037360115481565b3480156106cc57600080fd5b506102e36113e4565b3480156106e157600080fd5b506102e36106f03660046125f4565b6113f1565b34801561070157600080fd5b506102cc6107103660046125f4565b611570565b34801561072157600080fd5b50610373600f5481565b34801561073757600080fd5b506102cc6107463660046125ab565b61159f565b34801561075757600080fd5b506102976107663660046123a2565b6001600160a01b03918216600090815260056020908152604080832093909416825291909152205460ff1690565b3480156107a057600080fd5b506102cc6107af3660046124e1565b6115dc565b3480156107c057600080fd5b506102cc6107cf3660046125ab565b61161e565b3480156107e057600080fd5b506102cc6107ef366004612387565b61165b565b60006001600160e01b0319821663780e9d6360e01b14806108195750610819826116f3565b92915050565b600a546001600160a01b031633146108525760405162461bcd60e51b8152600401610849906127e3565b60405180910390fd5b6012805460ff1916911515919091179055565b606060008054610874906128f7565b80601f01602080910402602001604051908101604052809291908181526020018280546108a0906128f7565b80156108ed5780601f106108c2576101008083540402835291602001916108ed565b820191906000526020600020905b8154815290600101906020018083116108d057829003601f168201915b5050505050905090565b6000818152600260205260408120546001600160a01b03166109705760405162461bcd60e51b815260206004820152602c60248201527f4552433732313a20617070726f76656420717565727920666f72206e6f6e657860448201526b34b9ba32b73a103a37b5b2b760a11b6064820152608401610849565b506000908152600460205260409020546001600160a01b031690565b600d8054610999906128f7565b80601f01602080910402602001604051908101604052809291908181526020018280546109c5906128f7565b8015610a125780601f106109e757610100808354040283529160200191610a12565b820191906000526020600020905b8154815290600101906020018083116109f557829003601f168201915b505050505081565b6000610a2582610ee9565b9050806001600160a01b0316836001600160a01b03161415610a935760405162461bcd60e51b815260206004820152602160248201527f4552433732313a20617070726f76616c20746f2063757272656e74206f776e656044820152603960f91b6064820152608401610849565b336001600160a01b0382161480610aaf5750610aaf8133610766565b610b215760405162461bcd60e51b815260206004820152603860248201527f4552433732313a20617070726f76652063616c6c6572206973206e6f74206f7760448201527f6e6572206e6f7220617070726f76656420666f7220616c6c00000000000000006064820152608401610849565b610b2b8383611743565b505050565b610b3a33826117b1565b610b565760405162461bcd60e51b815260040161084990612818565b610b2b8383836118a8565b6000610b6c83610f60565b8210610bce5760405162461bcd60e51b815260206004820152602b60248201527f455243373231456e756d657261626c653a206f776e657220696e646578206f7560448201526a74206f6620626f756e647360a81b6064820152608401610849565b506001600160a01b03919091166000908152600660209081526040808320938352929052205490565b6000805b601354811015610c5857826001600160a01b031660138281548110610c2257610c226129a3565b6000918252602090912001546001600160a01b03161415610c465750600192915050565b80610c5081612932565b915050610bfb565b50600092915050565b600a546001600160a01b03163314610c8b5760405162461bcd60e51b8152600401610849906127e3565b60128054911515620100000262ff000019909216919091179055565b600a546001600160a01b03163314610cd15760405162461bcd60e51b8152600401610849906127e3565b604051600090339047908381818185875af1925050503d8060008114610d13576040519150601f19603f3d011682016040523d82523d6000602084013e610d18565b606091505b5050905080610d2657600080fd5b50565b610b2b83838360405180602001604052806000815250611382565b60606000610d5183610f60565b905060008167ffffffffffffffff811115610d6e57610d6e6129b9565b604051908082528060200260200182016040528015610d97578160200160208202803683370190505b50905060005b82811015610dde57610daf8582610b61565b828281518110610dc157610dc16129a3565b602090810291909101015280610dd681612932565b915050610d9d565b509392505050565b600a546001600160a01b03163314610e105760405162461bcd60e51b8152600401610849906127e3565b600e55565b6000610e2060085490565b8210610e835760405162461bcd60e51b815260206004820152602c60248201527f455243373231456e756d657261626c653a20676c6f62616c20696e646578206f60448201526b7574206f6620626f756e647360a01b6064820152608401610849565b60088281548110610e9657610e966129a3565b90600052602060002001549050919050565b600a546001600160a01b03163314610ed25760405162461bcd60e51b8152600401610849906127e3565b8051610ee590600b9060208401906121db565b5050565b6000818152600260205260408120546001600160a01b0316806108195760405162461bcd60e51b815260206004820152602960248201527f4552433732313a206f776e657220717565727920666f72206e6f6e657869737460448201526832b73a103a37b5b2b760b91b6064820152608401610849565b60006001600160a01b038216610fcb5760405162461bcd60e51b815260206004820152602a60248201527f4552433732313a2062616c616e636520717565727920666f7220746865207a65604482015269726f206164647265737360b01b6064820152608401610849565b506001600160a01b031660009081526003602052604090205490565b600a546001600160a01b031633146110115760405162461bcd60e51b8152600401610849906127e3565b61101b6000611a53565b565b600a546001600160a01b031633146110475760405162461bcd60e51b8152600401610849906127e3565b601055565b606060018054610874906128f7565b60125460ff161561106b57600080fd5b600061107660085490565b90506000821161108557600080fd5b60105482111561109457600080fd5b600f546110a18383612869565b11156110ac57600080fd5b6110b68282611aa5565b1561114f5760405162461bcd60e51b815260206004820152605f60248201527f5f6d696e74416d6f756e7420676f6573206f766572206120746f6b656e20494460448201527f2072616e6765207769746820494420636f6e666c696374732c206368616e676560648201527f205f6d696e74416d6f756e74206f722074727920616761696e206c6174657200608482015260a401610849565b600a546001600160a01b031633146112535760125462010000900460ff161515600114156112395761118033610bf7565b6111cc5760405162461bcd60e51b815260206004820152601860248201527f55736572206973206e6f742077686974656c69737465642100000000000000006044820152606401610849565b336000908152601460205260409020546011546111e98483612869565b11156112375760405162461bcd60e51b815260206004820152601c60248201527f6d6178204e4654207065722061646472657373206578636565646564000000006044820152606401610849565b505b81600e546112479190612895565b34101561125357600080fd5b60015b828111610b2b5761128761126a8284612869565b6000908152600260205260409020546001600160a01b0316151590565b6112bf573360009081526014602052604081208054916112a683612932565b909155506112bf9050336112ba8385612869565b611adc565b806112c981612932565b915050611256565b610ee5338383611af6565b600a546001600160a01b031633146113065760405162461bcd60e51b8152600401610849906127e3565b6012805461ff001916610100179055565b600a546001600160a01b031633146113415760405162461bcd60e51b8152600401610849906127e3565b60125460ff161561135157600080fd5b600061135c60085490565b600f5490915061136d826001612869565b111561137857600080fd5b610ee53383611adc565b61138c33836117b1565b6113a85760405162461bcd60e51b815260040161084990612818565b6113b484848484611bc5565b50505050565b601381815481106113ca57600080fd5b6000918252602090912001546001600160a01b0316905081565b600c8054610999906128f7565b6000818152600260205260409020546060906001600160a01b03166114705760405162461bcd60e51b815260206004820152602f60248201527f4552433732314d657461646174613a2055524920717565727920666f72206e6f60448201526e3732bc34b9ba32b73a103a37b5b2b760891b6064820152608401610849565b601254610100900460ff1661151157600d805461148c906128f7565b80601f01602080910402602001604051908101604052809291908181526020018280546114b8906128f7565b80156115055780601f106114da57610100808354040283529160200191611505565b820191906000526020600020905b8154815290600101906020018083116114e857829003601f168201915b50505050509050919050565b600061151b611bf8565b9050600081511161153b5760405180602001604052806000815250611569565b8061154584611c07565b600c60405160200161155993929190612639565b6040516020818303038152906040525b9392505050565b600a546001600160a01b0316331461159a5760405162461bcd60e51b8152600401610849906127e3565b601155565b600a546001600160a01b031633146115c95760405162461bcd60e51b8152600401610849906127e3565b8051610ee590600c9060208401906121db565b600a546001600160a01b031633146116065760405162461bcd60e51b8152600401610849906127e3565b6116126013600061225f565b610b2b6013838361227d565b600a546001600160a01b031633146116485760405162461bcd60e51b8152600401610849906127e3565b8051610ee590600d9060208401906121db565b600a546001600160a01b031633146116855760405162461bcd60e51b8152600401610849906127e3565b6001600160a01b0381166116ea5760405162461bcd60e51b815260206004820152602660248201527f4f776e61626c653a206e6577206f776e657220697320746865207a65726f206160448201526564647265737360d01b6064820152608401610849565b610d2681611a53565b60006001600160e01b031982166380ac58cd60e01b148061172457506001600160e01b03198216635b5e139f60e01b145b8061081957506301ffc9a760e01b6001600160e01b0319831614610819565b600081815260046020526040902080546001600160a01b0319166001600160a01b038416908117909155819061177882610ee9565b6001600160a01b03167f8c5be1e5ebec7d5bd14f71427d1e84f3dd0314c0f7b2291e5b200ac8c7c3b92560405160405180910390a45050565b6000818152600260205260408120546001600160a01b031661182a5760405162461bcd60e51b815260206004820152602c60248201527f4552433732313a206f70657261746f7220717565727920666f72206e6f6e657860448201526b34b9ba32b73a103a37b5b2b760a11b6064820152608401610849565b600061183583610ee9565b9050806001600160a01b0316846001600160a01b031614806118705750836001600160a01b0316611865846108f7565b6001600160a01b0316145b806118a057506001600160a01b0380821660009081526005602090815260408083209388168352929052205460ff165b949350505050565b826001600160a01b03166118bb82610ee9565b6001600160a01b0316146119235760405162461bcd60e51b815260206004820152602960248201527f4552433732313a207472616e73666572206f6620746f6b656e2074686174206960448201526839903737ba1037bbb760b91b6064820152608401610849565b6001600160a01b0382166119855760405162461bcd60e51b8152602060048201526024808201527f4552433732313a207472616e7366657220746f20746865207a65726f206164646044820152637265737360e01b6064820152608401610849565b611990838383611d05565b61199b600082611743565b6001600160a01b03831660009081526003602052604081208054600192906119c49084906128b4565b90915550506001600160a01b03821660009081526003602052604081208054600192906119f2908490612869565b909155505060008181526002602052604080822080546001600160a01b0319166001600160a01b0386811691821790925591518493918716917fddf252ad1be2c89b69c2b068fc378daa952ba7f163c4a11628f55a4df523b3ef91a4505050565b600a80546001600160a01b038381166001600160a01b0319831681179093556040519116919082907f8be0079c531659141344cd1fd0a4f28419497f9722a3daafe3b4186f6b6457e090600090a35050565b60008060015b84811015610dde57611ac061126a8286612869565b15611aca57600191505b80611ad481612932565b915050611aab565b610ee5828260405180602001604052806000815250611dbd565b816001600160a01b0316836001600160a01b03161415611b585760405162461bcd60e51b815260206004820152601960248201527f4552433732313a20617070726f766520746f2063616c6c6572000000000000006044820152606401610849565b6001600160a01b03838116600081815260056020908152604080832094871680845294825291829020805460ff191686151590811790915591519182527f17307eab39ab6107e8899845ad3d59bd9653f200f220920489ca2b5937696c31910160405180910390a3505050565b611bd08484846118a8565b611bdc84848484611df0565b6113b45760405162461bcd60e51b815260040161084990612791565b6060600b8054610874906128f7565b606081611c2b5750506040805180820190915260018152600360fc1b602082015290565b8160005b8115611c555780611c3f81612932565b9150611c4e9050600a83612881565b9150611c2f565b60008167ffffffffffffffff811115611c7057611c706129b9565b6040519080825280601f01601f191660200182016040528015611c9a576020820181803683370190505b5090505b84156118a057611caf6001836128b4565b9150611cbc600a8661294d565b611cc7906030612869565b60f81b818381518110611cdc57611cdc6129a3565b60200101906001600160f81b031916908160001a905350611cfe600a86612881565b9450611c9e565b6001600160a01b038316611d6057611d5b81600880546000838152600960205260408120829055600182018355919091527ff3f7a9fe364faab93b216da50a3214154f22a0a2b415b23a84c8169e8b636ee30155565b611d83565b816001600160a01b0316836001600160a01b031614611d8357611d838382611efd565b6001600160a01b038216611d9a57610b2b81611f9a565b826001600160a01b0316826001600160a01b031614610b2b57610b2b8282612049565b611dc7838361208d565b611dd46000848484611df0565b610b2b5760405162461bcd60e51b815260040161084990612791565b60006001600160a01b0384163b15611ef257604051630a85bd0160e11b81526001600160a01b0385169063150b7a0290611e349033908990889088906004016126fd565b602060405180830381600087803b158015611e4e57600080fd5b505af1925050508015611e7e575060408051601f3d908101601f19168201909252611e7b9181019061258e565b60015b611ed8573d808015611eac576040519150601f19603f3d011682016040523d82523d6000602084013e611eb1565b606091505b508051611ed05760405162461bcd60e51b815260040161084990612791565b805181602001fd5b6001600160e01b031916630a85bd0160e11b1490506118a0565b506001949350505050565b60006001611f0a84610f60565b611f1491906128b4565b600083815260076020526040902054909150808214611f67576001600160a01b03841660009081526006602090815260408083208584528252808320548484528184208190558352600790915290208190555b5060009182526007602090815260408084208490556001600160a01b039094168352600681528383209183525290812055565b600854600090611fac906001906128b4565b60008381526009602052604081205460088054939450909284908110611fd457611fd46129a3565b906000526020600020015490508060088381548110611ff557611ff56129a3565b600091825260208083209091019290925582815260099091526040808220849055858252812055600880548061202d5761202d61298d565b6001900381819060005260206000200160009055905550505050565b600061205483610f60565b6001600160a01b039093166000908152600660209081526040808320868452825280832085905593825260079052919091209190915550565b6001600160a01b0382166120e35760405162461bcd60e51b815260206004820181905260248201527f4552433732313a206d696e7420746f20746865207a65726f20616464726573736044820152606401610849565b6000818152600260205260409020546001600160a01b0316156121485760405162461bcd60e51b815260206004820152601c60248201527f4552433732313a20746f6b656e20616c7265616479206d696e746564000000006044820152606401610849565b61215460008383611d05565b6001600160a01b038216600090815260036020526040812080546001929061217d908490612869565b909155505060008181526002602052604080822080546001600160a01b0319166001600160a01b03861690811790915590518392907fddf252ad1be2c89b69c2b068fc378daa952ba7f163c4a11628f55a4df523b3ef908290a45050565b8280546121e7906128f7565b90600052602060002090601f016020900481019282612209576000855561224f565b82601f1061222257805160ff191683800117855561224f565b8280016001018555821561224f579182015b8281111561224f578251825591602001919060010190612234565b5061225b9291506122d0565b5090565b5080546000825590600052602060002090810190610d2691906122d0565b82805482825590600052602060002090810192821561224f579160200282015b8281111561224f5781546001600160a01b0319166001600160a01b0384351617825560209092019160019091019061229d565b5b8082111561225b57600081556001016122d1565b600067ffffffffffffffff80841115612300576123006129b9565b604051601f8501601f19908116603f01168101908282118183101715612328576123286129b9565b8160405280935085815286868601111561234157600080fd5b858560208301376000602087830101525050509392505050565b80356001600160a01b038116811461237257600080fd5b919050565b8035801515811461237257600080fd5b60006020828403121561239957600080fd5b6115698261235b565b600080604083850312156123b557600080fd5b6123be8361235b565b91506123cc6020840161235b565b90509250929050565b6000806000606084860312156123ea57600080fd5b6123f38461235b565b92506124016020850161235b565b9150604084013590509250925092565b6000806000806080858703121561242757600080fd5b6124308561235b565b935061243e6020860161235b565b925060408501359150606085013567ffffffffffffffff81111561246157600080fd5b8501601f8101871361247257600080fd5b612481878235602084016122e5565b91505092959194509250565b600080604083850312156124a057600080fd5b6124a98361235b565b91506123cc60208401612377565b600080604083850312156124ca57600080fd5b6124d38361235b565b946020939093013593505050565b600080602083850312156124f457600080fd5b823567ffffffffffffffff8082111561250c57600080fd5b818501915085601f83011261252057600080fd5b81358181111561252f57600080fd5b8660208260051b850101111561254457600080fd5b60209290920196919550909350505050565b60006020828403121561256857600080fd5b61156982612377565b60006020828403121561258357600080fd5b8135611569816129cf565b6000602082840312156125a057600080fd5b8151611569816129cf565b6000602082840312156125bd57600080fd5b813567ffffffffffffffff8111156125d457600080fd5b8201601f810184136125e557600080fd5b6118a0848235602084016122e5565b60006020828403121561260657600080fd5b5035919050565b600081518084526126258160208601602086016128cb565b601f01601f19169290920160200192915050565b60008451602061264c8285838a016128cb565b85519184019161265f8184848a016128cb565b8554920191600090600181811c908083168061267c57607f831692505b85831081141561269a57634e487b7160e01b85526022600452602485fd5b8080156126ae57600181146126bf576126ec565b60ff198516885283880195506126ec565b60008b81526020902060005b858110156126e45781548a8201529084019088016126cb565b505083880195505b50939b9a5050505050505050505050565b6001600160a01b03858116825284166020820152604081018390526080606082018190526000906127309083018461260d565b9695505050505050565b6020808252825182820181905260009190848201906040850190845b8181101561277257835183529284019291840191600101612756565b50909695505050505050565b602081526000611569602083018461260d565b60208082526032908201527f4552433732313a207472616e7366657220746f206e6f6e20455243373231526560408201527131b2b4bb32b91034b6b83632b6b2b73a32b960711b606082015260800190565b6020808252818101527f4f776e61626c653a2063616c6c6572206973206e6f7420746865206f776e6572604082015260600190565b60208082526031908201527f4552433732313a207472616e736665722063616c6c6572206973206e6f74206f6040820152701ddb995c881b9bdc88185c1c1c9bdd9959607a1b606082015260800190565b6000821982111561287c5761287c612961565b500190565b60008261289057612890612977565b500490565b60008160001904831182151516156128af576128af612961565b500290565b6000828210156128c6576128c6612961565b500390565b60005b838110156128e65781810151838201526020016128ce565b838111156113b45750506000910152565b600181811c9082168061290b57607f821691505b6020821081141561292c57634e487b7160e01b600052602260045260246000fd5b50919050565b600060001982141561294657612946612961565b5060010190565b60008261295c5761295c612977565b500690565b634e487b7160e01b600052601160045260246000fd5b634e487b7160e01b600052601260045260246000fd5b634e487b7160e01b600052603160045260246000fd5b634e487b7160e01b600052603260045260246000fd5b634e487b7160e01b600052604160045260246000fd5b6001600160e01b031981168114610d2657600080fdfea26469706673582212209ef4fb24a10b80b3792653ded9ba01b4fa6691c671f5e3988eca32686e9c846d64736f6c634300080700334f776e61626c653a2063616c6c6572206973206e6f7420746865206f776e6572000000000000000000000000000000000000000000000000000000000000008000000000000000000000000000000000000000000000000000000000000000c000000000000000000000000000000000000000000000000000000000000001000000000000000000000000000000000000000000000000000000000000000160000000000000000000000000000000000000000000000000000000000000000f42756e64794173736573736d656e740000000000000000000000000000000000000000000000000000000000000000000000000000000000000000000000000442415353000000000000000000000000000000000000000000000000000000000000000000000000000000000000000000000000000000000000000000000036697066733a2f2f516d58724b6576584b6e63794a62793851325a6176623136457a4a7874784178366b334179474d6137624171706a2f000000000000000000000000000000000000000000000000000000000000000000000000000000000000",
  "linkReferences": {},
  "deployedLinkReferences": {}
}